:100000000C942A000C943F000C943F000C943F0089
:100010000C943F000C943F000C943F000C943F0064
:100020000C943F000C943F000C943F000C943F0054
:100030000C943F000C943F000C943F000C943F0044
:100040000C943F000C943F000C943F000C943F0034
:100050000C943F0011241FBECFE5D8E0DEBFCDBF1A
:1000600011E0A0E6B0E0ECE9F7E102C005900D92E6
:10007000AA37B107D9F70E9440060C94CC0B0C9418
:100080000000DF93CF9300D000D0CDB7DEB78B83D5
:100090006C838CE08A838B81882319F08A8182604B
:1000A0008A838C81882319F08A8181608A8380E920
:1000B00091E00E94D402A1E3B0E0E1E3F0E08081AE
:1000C00080688C93A1E3B0E0E1E3F0E0808180649C
:1000D0008C93A4E3B0E0E4E3F0E08081806F8C9344
:1000E000A5E3B0E0E5E3F0E080818F708C931982A6
:1000F0002AC0A2E3B0E0E2E3F0E080818F7B8C9342
:10010000A2E3B0E0E2E3F0E0808180688C93A5E3B5
:10011000B0E0E5E3F0E0808180638C93A5E3B0E09C
:10012000E5E3F0E0808180638C93A2E3B0E0E2E35A
:10013000F0E080818F778C9382E090E00E94D4027F
:1001400089818F5F89838981833098F2A5E3B0E04C
:10015000E5E3F0E080818F708C93A2E3B0E0E2E30E
:10016000F0E080818F7B8C93A2E3B0E0E2E3F0E0EB
:10017000808180688C93A5E3B0E0E5E3F0E08081C6
:1001800080628C93A5E3B0E0E5E3F0E080818062DB
:100190008C93A2E3B0E0E2E3F0E080818F778C9370
:1001A00089E290E00E94D40288E20E946D0189E217
:1001B00090E00E94D4028A810E94ED0089E290E0E2
:1001C0000E94D4020E94ED010E94FB010F900F904B
:1001D0000F900F90CF91DF910895DF93CF930F92FF
:1001E000CDB7DEB78983A5E3B0E0E5E3F0E0808139
:1001F0008F708C93A2E3B0E0E2E3F0E080818F7B2C
:100200008C93A2E3B0E0E2E3F0E0808180688C931D
:10021000A5E3B0E0E5E3F0E08081982F8981807F5D
:10022000892B8C93A5E3B0E0E5E3F0E08081982F83
:100230008981807F892B8C93A2E3B0E0E2E3F0E038
:1002400080818F778C9381E090E00E94D402A5E3B7
:10025000B0E0E5E3F0E080818F708C93A2E3B0E042
:10026000E2E3F0E080818F7B8C93A2E3B0E0E2E3F5
:10027000F0E0808180688C93A5E3B0E0E5E3F0E0F6
:100280008081282F8981882F90E082959295907F98
:100290009827807F9827822B8C93A5E3B0E0E5E335
:1002A000F0E08081282F8981882F90E082959295B7
:1002B000907F9827807F9827822B8C93A2E3B0E0D1
:1002C000E2E3F0E080818F778C9382E090E00E94FF
:1002D000D4020F90CF91DF910895DF93CF930F92C7
:1002E000CDB7DEB78983A5E3B0E0E5E3F0E0808138
:1002F0008F708C93A2E3B0E0E2E3F0E08081806451
:100300008C93A2E3B0E0E2E3F0E0808180688C931C
:10031000A5E3B0E0E5E3F0E08081982F8981807F5C
:10032000892B8C93A5E3B0E0E5E3F0E08081982F82
:100330008981807F892B8C93A2E3B0E0E2E3F0E037
:1003400080818F778C9381E090E00E94D402A5E3B6
:10035000B0E0E5E3F0E080818F708C93A2E3B0E041
:10036000E2E3F0E0808180648C93A2E3B0E0E2E31A
:10037000F0E0808180688C93A5E3B0E0E5E3F0E0F5
:100380008081282F8981882F90E082959295907F97
:100390009827807F9827822B8C93A5E3B0E0E5E334
:1003A000F0E08081282F8981882F90E082959295B6
:1003B000907F9827807F9827822B8C93A2E3B0E0D0
:1003C000E2E3F0E080818F778C9382E090E00E94FE
:1003D000D4020F90CF91DF910895DF93CF93CDB7E3
:1003E000DEB781E00E94ED0089E290E00E94D40235
:1003F000CF91DF910895DF93CF93CDB7DEB782E041
:100400000E94ED0089E290E00E94D402CF91DF913A
:100410000895DF93CF9300D0CDB7DEB789836A8389
:100420008981823029F48A8180540E94ED0004C0C1
:100430008A8180580E94ED000F900F90CF91DF913C
:100440000895DF93CF9300D0CDB7DEB79A83898329
:100450000AC0E981FA8180810E946D0189819A81B7
:1004600001969A838983E981FA818081882389F7BB
:100470000F900F90CF91DF9108950F931F93DF930B
:10048000CF93CDB7DEB72E970FB6F894DEBF0FBE71
:10049000CDBF6C837D838E839F8348872DB73EB706
:1004A0003E872D878DB79EB79A8789878885882F45
:1004B00090E02DB73EB7281B390B0FB6F8943EBF1E
:1004C0000FBE2DBF8DB79EB701969C878B878B85FE
:1004D0009C8500969C878B872B853C853B832A8354
:1004E00019822EC08981082F10E08C819D81AE81F8
:1004F000BF812AE030E040E050E0BC01CD010E9425
:10050000730BDC01CB01282F205D8A819B81FC01CC
:10051000E00FF11F20838C819D81AE81BF812AE095
:1005200030E040E050E0BC01CD010E94730BDA01E5
:10053000C9018C839D83AE83BF8389818F5F89834B
:1005400099818885981770F28885898311C089817F
:10055000882F90E09C01215030408A819B81FC01D2
:10056000E20FF31F80810E946D0189818150898390
:100570008981882361F789859A850FB6F8949EBF93
:100580000FBE8DBF2D853E850FB6F8943EBF0FBEC2
:100590002DBF2E960FB6F894DEBF0FBECDBFCF9104
:1005A000DF911F910F910895DF93CF9300D000D07A
:1005B0000F92CDB7DEB79D838C838C819D81880F90
:1005C000991F880F991F880F991F9D838C831B8209
:1005D0001A820DC0198203C089818F5F8983898146
:1005E0008630D0F38A819B8101969B838A832A81FE
:1005F0003B818C819D812817390760F30F900F9004
:100600000F900F900F90CF91DF910895DF93CF93CC
:1006100000D000D0CDB7DEB7E1E3F0E08081E1E3C8
:10062000F0E08FEF8083A2E3B0E0E2E3F0E08081CE
:100630008C93E4E3F0E08081E4E3F0E08FEF8083EB
:10064000E5E3F0E08081E5E3F0E08FEF8083EAE32B
:10065000F0E01082EBE3F0E01082A7E3B0E0E7E324
:10066000F0E080818C93A8E3B0E0E8E3F0E08081E3
:100670008E638C93A6E2B0E0E6E2F0E080818068D1
:100680008C93A6E2B0E0E6E2F0E0808187608C9394
:10069000A7E2B0E0E7E2F0E0808180648C93198209
:1006A000E7E2F0E08081807E8983898181608983AF
:1006B000E7E2F0E0898180830F900F900F900F9018
:1006C000CF91DF910895DF93CF93CDB7DEB7279712
:1006D0000FB6F894DEBF0FBECDBF8EE18F838AE0E8
:1006E0008E83A1E3B0E0E1E3F0E0808180628C934F
:1006F000A2E3B0E0E2E3F0E080818F7D8C93A5E39C
:10070000B0E0E5E3F0E080818F608C931D8280E0B3
:1007100090E0A0E0B0E089839A83AB83BC8380E063
:1007200060E00E94410081E063E00E94090280E6EF
:1007300090E00E94210281E06BE00E9409028FEDAF
:100740000E946D0181E06CE00E94090286E690E063
:100750000E94210282E060E00E94090288E690E0A7
:100760000E94210282E065E00E9409028E81882FAA
:1007700090E0A0E0B0E0BC01CD0142E00E943D026B
:1007800082E069E00E9409028DE690E00E94210269
:1007900082E06EE00E9409028F81882F90E0A0E045
:1007A000B0E0BC01CD0142E00E943D02A6E2B0E013
:1007B000E6E2F0E0808180648C9381E069E00E9451
:1007C0000902E4E2F0E080819181CC01A0E0B0E098
:1007D000BC01CD010E940509DC01CB01BC01CD01AA
:1007E00020E030E040EA50E40E944D06DC01CB01FD
:1007F000BC01CD0120E030E048EC52E40E944D06FF
:10080000DC01CB01BC01CD0120E030EC4FE754E42A
:100810000E944707DC01CB0189839A83AB83BC83A9
:1008200069817A818B819C810E94B108DC01CB01B6
:10083000AA2797FDA095BA2FBC01CD0142E00E94E6
:100840003D028F81882F90E0AA2797FDA095BA2FAF
:10085000BC01CD010E945308DC01CB01BC01CD01DC
:1008600029813A814B815C810E94230818164CF043
:10087000A2E3B0E0E2E3F0E0908182E089278C938C
:1008800023C08E81882F90E0AA2797FDA095BA2FCC
:10089000BC01CD010E945308DC01CB01BC01CD019C
:1008A00029813A814B815C810E94F30788234CF0B7
:1008B000A2E3B0E0E2E3F0E0908181E089278C934D
:1008C00003C0E2E3F0E0108284E690E00E94690455
:1008D0006DCFDF93CF9300D000D000D0CDB7DEB77F
:1008E0009E838D838D819E81880F991F880F991F0C
:1008F000880F991F9E838D831C821B8212C01A82CF
:10090000198205C089819A8101969A838983898198
:100910009A8185339105B0F38B819C8101969C83EC
:100920008B832B813C818D819E812817390738F379
:1009300026960FB6F894DEBF0FBECDBFCF91DF91E4
:100940000895DF93CF930F92CDB7DEB78FEF8983F2
:10095000E2E3F0E0898180838981882321F0898125
:10096000880F898302C08FEF898384EF91E00E9412
:100970006904EECFDF93CF930F92CDB7DEB78FEF41
:100980008983E2E3F0E0898180838981882321F0F3
:1009900089818695898302C08FEF898384EF91E0F6
:1009A0000E946904EECFDF93CF930F92CDB7DEB7ED
:1009B0008FEF8983E2E3F0E08981808389818A3A3D
:1009C00041F08981880F880F8983898182608983BA
:1009D00002C08FEF898384EF91E00E946904EACF1F
:1009E000DF93CF930F92CDB7DEB78FEF8983E2E32A
:1009F000F0E0898180838981853541F08981880F84
:100A0000880F898389818160898302C08FEF898300
:100A100084EF91E00E946904EACFDF93CF930F92B5
:100A2000CDB7DEB7E6E3F0E08081882F90E08F71EC
:100A300090708F319105E1F1E6E3F0E08081882F3D
:100A400090E081709070009719F481E0898331C043
:100A5000E6E3F0E08081882F90E08270907000974C
:100A600019F482E0898325C0E6E3F0E08081882FD5
:100A700090E084709070009719F483E0898319C026
:100A8000E6E3F0E08081882F90E088709070009716
:100A900019F484E089830DC0E6E3F0E08081882FBB
:100AA00090E080719070009719F485E0898301C00F
:100AB000198289810F90CF91DF910895DF93CF93B1
:100AC0000F92CDB7DEB78FEF89830E940D05898322
:100AD0008981813019F40E94A104F7CF8981823085
:100AE00019F40E94BA04F1CF8981833019F40E946D
:100AF000D304EBCF8981843019F40E94F004E5CF50
:100B00008981853011F7E2E3F0E08FEF8083DDCF5C
:100B1000DF93CF9300D0CDB7DEB78FEF8A8389E024
:100B20008983E2E3F0E08A8180838A81853541F020
:100B30008A81880F880F8A838A8181608A8302C0B4
:100B40008FEF8A8389810E94BA05A5E3B0E0E5E3CF
:100B5000F0E0908188E089278C9389818150898396
:100B600089818F3F11F489E0898384EF91E00E94AD
:100B70006904D7CFDF93CF9300D000D0CDB7DEB7D5
:100B80008A83E5E3F0E080818983898188708983A5
:100B90008A81282F30E03C832B838B819C81843099
:100BA000910509F44FC02B813C8125303105D4F4E7
:100BB0008B819C8181309105C9F12B813C81223050
:100BC00031052CF48B819C81009761F14EC02B8103
:100BD0003C812230310571F18B819C8183309105FC
:100BE00069F143C02B813C8127303105B9F18B81FC
:100BF0009C81883091055CF42B813C812530310546
:100C000029F18B819C818630910521F12EC02B81A9
:100C10003C812830310549F18B819C8189309105D7
:100C200009F123C08981806889831FC08981836E0F
:100C300089831BC089818464898317C08981816409
:100C4000898313C08981836289830FC0898181610F
:100C500089830BC089818061898307C08981836C06
:100C6000898303C0898181608983E5E3F0E089811C
:100C700080830F900F900F900F90CF91DF91089588
:100C8000DF93CF93CDB7DEB70E9406030E946303C4
:100C900080E090E0CF91DF910895A0E2B0E0E3E53D
:100CA000F6E00C94950B69837A838B839C832D8368
:100CB0003E834F835887CE010196BE01675F7F4F09
:100CC0000E94A20ACE010596BE016F5E7F4F0E9470
:100CD000A20A9985923088F089898230C8F09430D0
:100CE00019F4823051F404C0843029F4923081F434
:100CF00082E790E0C6C0923049F420E09A858A8964
:100D0000981321E02A87CE010996BBC0823049F4AE
:100D100020E09A858A89981321E02A8BCE0141969A
:100D2000B0C02D843E844F8458886D887E888F881B
:100D3000988CEE24FF248701AA24BB24650140E09F
:100D400050E060E070E0E0E0F0E0C10181709070A0
:100D5000892BE9F0E60CF71C081D191D9A01AB015F
:100D60002A0D3B1D4C1D5D1D80E090E0A0E0B0E031
:100D7000E614F7040805190520F481E090E0A0E0EE
:100D8000B0E0BA01A901480F591F6A1F7B1FAA0CC6
:100D9000BB1CCC1CDD1C97FE08C081E090E0A0E0ED
:100DA000B0E0A82AB92ACA2ADB2A3196E032F10536
:100DB00049F0660C771C881C991C5694479437940C
:100DC0002794C3CFFA85EA892B893C898B859C853A
:100DD000280F391F2E5F3F4F17C0CA0181709070D6
:100DE000892B61F016950795F794E79480E090E0E1
:100DF000A0E0B0E8E82AF92A0A2B1B2B7695679524
:100E0000579547952F5F3F4F77FDE7CF0CC0440FB5
:100E1000551F661F771F17FD4160EE0CFF1C001F5A
:100E2000111F21503040403090E0590790E0690791
:100E300090E4790760F32B8F3C8FDB01CA018F7739
:100E40009070A070B07080349105A105B10561F477
:100E500047FD0AC0E114F1040105110529F0405CC9
:100E60005F4F6F4F7F4F40781A8EFE1711F081E071
:100E70008A8F4D8F5E8F6F8F78A383E0898FCE012D
:100E800049960E94CD09A096E2E10C94B10BA8E12D
:100E9000B0E0EDE4F7E00C949D0B69837A838B83DB
:100EA0009C832D833E834F835887B9E0EB2EF12C32
:100EB000EC0EFD1ECE010196B7010E94A20A8E0122
:100EC0000F5E1F4FCE010596B8010E94A20A298528
:100ED000223008F47EC03989323010F4B8017CC069
:100EE0008A859A8989278A87243011F0223031F443
:100EF000231709F06EC062E770E06EC0343039F439
:100F00001D861E861F86188A1C861B8604C03230EA
:100F100021F484E08987B7015FC02B853C858B89EC
:100F20009C89281B390B3C872B87ED84FE840F8519
:100F30001889AD88BE88CF88D88CEA14FB040C05CC
:100F40001D0540F4EE0CFF1C001F111F2150304006
:100F50003C872B8720E030E040E050E080E090E0EC
:100F6000A0E0B0E460E070E0EA14FB040C051D05AD
:100F700040F0282B392B4A2B5B2BEA18FB080C0975
:100F80001D09B695A79597958795EE0CFF1C001F38
:100F9000111F6F5F7F4F6F31710531F7DA01C901A2
:100FA0008F779070A070B07080349105A105B10565
:100FB00061F427FD0AC0E114F1040105110529F0CF
:100FC000205C3F4F4F4F5F4F20782D873E874F87E4
:100FD000588BBE01675F7F4FCB010E94CD09689699
:100FE000EAE00C94B90BA8E1B0E0E9EFF7E00C946B
:100FF000A10B69837A838B839C832D833E834F83EC
:10100000588789E0E82EF12CEC0EFD1ECE010196EA
:10101000B7010E94A20A8E010F5E1F4FCE010596F6
:10102000B8010E94A20A8985823040F08989823005
:1010300028F0C701B8010E941A0B01C08FEF689613
:10104000E6E00C94BD0BA8E1B0E0E9E2F8E00C9416
:10105000A10B69837A838B839C832D833E834F838B
:10106000588789E0E82EF12CEC0EFD1ECE0101968A
:10107000B7010E94A20A8E010F5E1F4FCE01059696
:10108000B8010E94A20A8985823040F089898230A5
:1010900028F0C701B8010E941A0B01C081E06896D0
:1010A000E6E00C94BD0BA8E0B0E0E9E5F8E00C94B4
:1010B0009E0B9B01AC0183E08983DA01C90188277B
:1010C000B7FD83959927AA27BB27B82E211531058F
:1010D0004105510519F482E089833AC08823A9F0BB
:1010E000203080E0380780E0480780E8580729F47E
:1010F00060E070E080E09FEC30C0EE24FF248701C8
:10110000E21AF30A040B150B02C079018A018EE181
:10111000C82ED12CDC82CB82ED82FE820F83188711
:10112000C801B7010E947E0901971816190684F4B8
:10113000082E04C0EE0CFF1C001F111F0A94D2F7EA
:10114000ED82FE820F831887C81AD90ADC82CB820F
:10115000BA82CE0101960E94CD092896E9E00C944E
:10116000BA0BACE0B0E0E7EBF8E00C94A50B6983B8
:101170007A838B839C83CE010196BE016B5F7F4F88
:101180000E94A20A8D81823061F1823050F1843058
:1011900021F48E81882351F12EC02F81388537FDAF
:1011A00020C06E812F3131051CF06623F9F023C079
:1011B0008EE190E0821B930B29853A854B855C85F7
:1011C00004C056954795379527958A95D2F766239B
:1011D000B1F050954095309521953F4F4F4F5F4F5F
:1011E0000EC020E030E040E050E009C02FEF3FEFBC
:1011F0004FEF5FE704C020E030E040E050E8B90185
:10120000CA012C96E2E00C94C10BA8E0B0E0EBE040
:10121000F9E00C949D0B7B018C0161157105810532
:10122000910519F482E0898360C083E089838EE1AF
:10123000C82ED12CDC82CB82ED82FE820F831887F0
:10124000C801B7010E947E09FC013197F7FF3BC03E
:10125000222733272E1B3F0B57016801022E04C0A3
:10126000D694C794B794A7940A94D2F740E050E07C
:1012700060E070E081E090E0A0E0B0E004C0880FA2
:10128000991FAA1FBB1F2A95D2F70197A109B1097F
:101290008E219F21A023B1230097A105B10521F044
:1012A00041E050E060E070E04A295B296C297D292B
:1012B0004D835E836F8378878EE190E08E1B9F0B5A
:1012C0009C838B8312C0309781F00E2E04C0EE0CED
:1012D000FF1C001F111F0A94D2F7ED82FE820F83BC
:1012E0001887CE1ADF0ADC82CB821A82CE010196E1
:1012F0000E94CD092896EAE00C94B90BEF92FF9278
:101300000F931F937B018C0180E0E81680E0F806C4
:1013100081E0080780E0180788F48FEFE816F104F1
:101320000105110531F028F088E090E0A0E0B0E080
:1013300017C080E090E0A0E0B0E012C080E0E816C6
:1013400080E0F80680E0080781E0180728F088E1CF
:1013500090E0A0E0B0E004C080E190E0A0E0B0E068
:1013600020E230E040E050E0281B390B4A0B5B0BD9
:1013700004C016950795F794E7948A95D2F7F7017C
:10138000E658FF4F8081281B310941095109C901E5
:101390001F910F91FF90EF900895DF92EF92FF92CF
:1013A0000F931F93FC01E480F58006811781D180A3
:1013B0008081823048F480E090E0A0E1B0E0E82A4B
:1013C000F92A0A2B1B2BA5C0843009F49FC0823058
:1013D00021F4EE24FF24870105C0E114F104010586
:1013E000110519F4E0E0F0E096C0628173819FEF8F
:1013F000623879070CF05BC022E83FEF261B370B01
:101400002A3131052CF020E030E040E050E02AC0E5
:10141000B801A701022E04C07695679557954795A8
:101420000A94D2F781E090E0A0E0B0E004C0880F19
:10143000991FAA1FBB1F2A95D2F70197A109B109CD
:101440008E219F21A023B1230097A105B10521F092
:1014500081E090E0A0E0B0E09A01AB01282B392BAD
:101460004A2B5B2BDA01C9018F779070A070B070A6
:1014700080349105A105B10539F427FF09C0205C2E
:101480003F4F4F4F5F4F04C0215C3F4F4F4F5F4F67
:10149000E0E0F0E02030A0E03A07A0E04A07A0E456
:1014A0005A0710F0E1E0F0E079018A0127C06038C6
:1014B000710564F5FB01E158FF4FD801C7018F7733
:1014C0009070A070B07080349105A105B10539F419
:1014D000E7FE0DC080E490E0A0E0B0E004C08FE340
:1014E00090E0A0E0B0E0E80EF91E0A1F1B1F17FFF6
:1014F00005C016950795F794E794319687E0169501
:101500000795F794E7948A95D1F705C0EE24FF2458
:101510008701EFEFF0E06E2F679566276795902FB4
:101520009F77D794DD24D7948E2F8695492F462B0D
:10153000582F5D29B701CA011F910F91FF90EF90BD
:10154000DF900895FC01DB01408151812281622FEF
:101550006F7770E0221F2227221F9381892F880F27
:10156000822B282F30E0991F9927991F11969C9361
:10157000119721153105A9F5411551056105710531
:1015800011F482E037C082E89FEF13969C938E930C
:1015900012979A01AB0167E0220F331F441F551FBA
:1015A0006A95D1F783E08C930DC0220F331F441F3F
:1015B000551F12968D919C911397019713969C93AA
:1015C0008E931297203080E0380780E0480780E44F
:1015D000580758F314962D933D934D935C931797AA
:1015E00008952F3F310579F44115510561057105C5
:1015F00019F484E08C93089564FF03C081E08C9318
:1016000012C01C9210C02F57304013963C932E935B
:10161000129783E08C9387E0440F551F661F771F56
:101620008A95D1F7706414964D935D936D937C9376
:10163000179708951F93DC01FB019C91923008F4E9
:1016400047C08081823008F443C0943051F4119631
:101650001C91843099F58181682F70E0611B7109BC
:101660003FC0843021F0923031F48230B9F1818171
:10167000882389F12DC011961C9111978230F1F0C9
:1016800081811817D9F412962D913C91139782817C
:1016900093818217930794F028173907BCF01496AA
:1016A0008D919D910D90BC91A02D24813581468115
:1016B0005781281739074A075B0718F4112341F0AF
:1016C0000AC082179307A407B50740F4112319F045
:1016D00061E070E005C06FEF7FEF02C060E070E096
:1016E000CB011F910895A1E21A2EAA1BBB1BFD017D
:1016F0000DC0AA1FBB1FEE1FFF1FA217B307E407F1
:10170000F50720F0A21BB30BE40BF50B661F771F48
:10171000881F991F1A9469F7609570958095909528
:101720009B01AC01BD01CF0108952F923F924F92D2
:101730005F926F927F928F929F92AF92BF92CF9261
:10174000DF92EF92FF920F931F93CF93DF93CDB76A
:10175000DEB7CA1BDB0B0FB6F894DEBF0FBECDBFE2
:1017600009942A88398848885F846E847D848C84B3
:101770009B84AA84B984C884DF80EE80FD800C81BC
:101780001B81AA81B981CE0FD11D0FB6F894DEBF9F
:0C1790000FBECDBFED010895F894FFCF0F
:10179C0054454D503A0043004D494E3A004D415886
:1017AC003A000000000000000000000102020303E8
:1017BC0003030404040404040404050505050505D9
:1017CC0005050505050505050505060606060606B7
:1017DC00060606060606060606060606060606069D
:1017EC000606060606060606060607070707070787
:1017FC00070707070707070707070707070707076D
:10180C00070707070707070707070707070707075C
:10181C00070707070707070707070707070707074C
:10182C000707070707070707070708080808080836
:10183C00080808080808080808080808080808081C
:10184C00080808080808080808080808080808080C
:10185C0008080808080808080808080808080808FC
:10186C0008080808080808080808080808080808EC
:10187C0008080808080808080808080808080808DC
:10188C0008080808080808080808080808080808CC
:10189C0008080808080808080808080808080808BC
:0A18AC0008080808080808080808E2
:00000001FF
